{
  "contractName": "AirlineRole",
  "abi": [
    {
      "inputs": [],
      "payable": false,
      "stateMutability": "nonpayable",
      "type": "constructor"
    },
    {
      "anonymous": false,
      "inputs": [
        {
          "indexed": true,
          "internalType": "address",
          "name": "account",
          "type": "address"
        }
      ],
      "name": "AirlineAdded",
      "type": "event"
    },
    {
      "anonymous": false,
      "inputs": [
        {
          "indexed": true,
          "internalType": "address",
          "name": "account",
          "type": "address"
        }
      ],
      "name": "AirlineRemoved",
      "type": "event"
    },
    {
      "constant": true,
      "inputs": [
        {
          "internalType": "address",
          "name": "account",
          "type": "address"
        }
      ],
      "name": "isAirline",
      "outputs": [
        {
          "internalType": "bool",
          "name": "",
          "type": "bool"
        }
      ],
      "payable": false,
      "stateMutability": "view",
      "type": "function"
    },
    {
      "constant": false,
      "inputs": [
        {
          "internalType": "address",
          "name": "account",
          "type": "address"
        }
      ],
      "name": "addAirline",
      "outputs": [],
      "payable": false,
      "stateMutability": "nonpayable",
      "type": "function"
    },
    {
      "constant": false,
      "inputs": [],
      "name": "renounceAirline",
      "outputs": [],
      "payable": false,
      "stateMutability": "nonpayable",
      "type": "function"
    }
  ],
  "bytecode": "0x608060405234801561001057600080fd5b506100203361002560201b60201c565b6101c7565b61003d81600061008360201b61026a1790919060201c565b8073ffffffffffffffffffffffffffffffffffffffff167fb55d65ff58a8ae5e1643396e49a8aa01aec7a0766f887812148a230464a41c8f60405160405180910390a250565b600073ffffffffffffffffffffffffffffffffffffffff168173ffffffffffffffffffffffffffffffffffffffff1614156100bd57600080fd5b6100cd828261013560201b60201c565b156100d757600080fd5b60018260000160008373ffffffffffffffffffffffffffffffffffffffff1673ffffffffffffffffffffffffffffffffffffffff16815260200190815260200160002060006101000a81548160ff0219169083151502179055505050565b60008073ffffffffffffffffffffffffffffffffffffffff168273ffffffffffffffffffffffffffffffffffffffff16141561017057600080fd5b8260000160008373ffffffffffffffffffffffffffffffffffffffff1673ffffffffffffffffffffffffffffffffffffffff16815260200190815260200160002060009054906101000a900460ff16905092915050565b6103f6806101d66000396000f3fe608060405234801561001057600080fd5b50600436106100415760003560e01c80630e248a11146100465780633a0295d1146100a25780634c17241e146100e6575b600080fd5b6100886004803603602081101561005c57600080fd5b81019080803573ffffffffffffffffffffffffffffffffffffffff1690602001909291905050506100f0565b604051808215151515815260200191505060405180910390f35b6100e4600480360360208110156100b857600080fd5b81019080803573ffffffffffffffffffffffffffffffffffffffff16906020019092919050505061010d565b005b6100ee610119565b005b600061010682600061012490919063ffffffff16565b9050919050565b610116816101b6565b50565b61012233610210565b565b60008073ffffffffffffffffffffffffffffffffffffffff168273ffffffffffffffffffffffffffffffffffffffff16141561015f57600080fd5b8260000160008373ffffffffffffffffffffffffffffffffffffffff1673ffffffffffffffffffffffffffffffffffffffff16815260200190815260200160002060009054906101000a900460ff16905092915050565b6101ca81600061026a90919063ffffffff16565b8073ffffffffffffffffffffffffffffffffffffffff167fb55d65ff58a8ae5e1643396e49a8aa01aec7a0766f887812148a230464a41c8f60405160405180910390a250565b61022481600061031690919063ffffffff16565b8073ffffffffffffffffffffffffffffffffffffffff167f30b877178d01ecce7800e37cb6dfbaad2e641045ee2ba52a50458ca4205bafbf60405160405180910390a250565b600073ffffffffffffffffffffffffffffffffffffffff168173ffffffffffffffffffffffffffffffffffffffff1614156102a457600080fd5b6102ae8282610124565b156102b857600080fd5b60018260000160008373ffffffffffffffffffffffffffffffffffffffff1673ffffffffffffffffffffffffffffffffffffffff16815260200190815260200160002060006101000a81548160ff0219169083151502179055505050565b600073ffffffffffffffffffffffffffffffffffffffff168173ffffffffffffffffffffffffffffffffffffffff16141561035057600080fd5b61035a8282610124565b61036357600080fd5b60008260000160008373ffffffffffffffffffffffffffffffffffffffff1673ffffffffffffffffffffffffffffffffffffffff16815260200190815260200160002060006101000a81548160ff021916908315150217905550505056fea265627a7a72315820c03822a9f8c8e8b713665a76f5dc3fb812541b3786d1e3e5ba1c312e0098231f64736f6c63430005110032",
  "source": "pragma solidity ^0.5.16; //0.4.24;\n\n// Import the library 'Roles'\nimport \"./Roles.sol\";\n\n// Define a contract 'ConsumerRole' to manage this role - add, remove, check\ncontract AirlineRole {\n\n  using Roles for Roles.Role; \n\n  // Define 2 events, one for Adding, and other for Removing\n  event AirlineAdded(address indexed account);\n  event AirlineRemoved(address indexed account);\n\n  // Define a struct 'consumers' by inheriting from 'Roles' library, struct Role\n  Roles.Role private airlines;\n\n  // In the constructor make the address that deploys this contract the 1st consumer\n  constructor() public {\n    //TODO: Check if this is really needed?\n    _addAirline(msg.sender);\n  }\n\n  // Define a modifier that checks to see if msg.sender has the appropriate role\n  modifier onlyAirline() {\n    require(isAirline(msg.sender));\n    _;\n  }\n\n  // Define a function 'isAirline' to check this role\n  function isAirline(address account) public view returns (bool) {\n    return airlines.has(account);\n  }\n\n  // Define a function 'addAirline' that adds this role\n  function addAirline(address account) public  {\n    _addAirline(account);\n  }\n\n  // Define a function 'renounceAirline' to renounce this role\n  function renounceAirline() public {\n    _removeAirline(msg.sender);\n  }\n\n  // Define an internal function '_addAirline' to add this role, called by 'addAirline'\n  function _addAirline(address account) internal {\n    airlines.add(account);\n    emit AirlineAdded(account);\n  }\n\n  // Define an internal function '_removeAirline' to remove this role, called by '_removeAirline'\n  function _removeAirline(address account) internal {\n    airlines.remove(account);\n    emit AirlineRemoved(account);\n  }\n}",
  "sourcePath": "/Users/pperotti/Documents/CURSOS/Udacity/Blockchain developer/Projects/udacity-flight-surety/project/contracts/accesscontrol/AirlineRole.sol",
  "compiler": {
    "name": "solc",
    "version": "0.5.17+commit.d19bba13.Emscripten.clang"
  },
  "schemaVersion": "3.3.4",
  "updatedAt": "2021-07-16T03:50:18.849Z",
  "networkType": "ethereum",
  "devdoc": {
    "methods": {}
  },
  "userdoc": {
    "methods": {}
  }
}