{
  "contractName": "FlightSuretyData",
  "abi": [
    {
      "inputs": [],
      "payable": false,
      "stateMutability": "nonpayable",
      "type": "constructor"
    },
    {
      "anonymous": false,
      "inputs": [
        {
          "indexed": false,
          "internalType": "address",
          "name": "airline",
          "type": "address"
        },
        {
          "indexed": false,
          "internalType": "uint256",
          "name": "votes",
          "type": "uint256"
        },
        {
          "indexed": false,
          "internalType": "bool",
          "name": "isAccepted",
          "type": "bool"
        }
      ],
      "name": "AirlineStatus",
      "type": "event"
    },
    {
      "payable": true,
      "stateMutability": "payable",
      "type": "fallback"
    },
    {
      "constant": true,
      "inputs": [],
      "name": "isOperational",
      "outputs": [
        {
          "internalType": "bool",
          "name": "",
          "type": "bool"
        }
      ],
      "payable": false,
      "stateMutability": "view",
      "type": "function"
    },
    {
      "constant": false,
      "inputs": [
        {
          "internalType": "bool",
          "name": "mode",
          "type": "bool"
        }
      ],
      "name": "setOperatingStatus",
      "outputs": [],
      "payable": false,
      "stateMutability": "nonpayable",
      "type": "function"
    },
    {
      "constant": false,
      "inputs": [
        {
          "internalType": "address",
          "name": "airlineAddress",
          "type": "address"
        }
      ],
      "name": "createAirline",
      "outputs": [],
      "payable": false,
      "stateMutability": "nonpayable",
      "type": "function"
    },
    {
      "constant": false,
      "inputs": [
        {
          "internalType": "address",
          "name": "airlineAddress",
          "type": "address"
        }
      ],
      "name": "voteAirline",
      "outputs": [],
      "payable": false,
      "stateMutability": "nonpayable",
      "type": "function"
    },
    {
      "constant": true,
      "inputs": [],
      "name": "getAcceptedAirlineCount",
      "outputs": [
        {
          "internalType": "uint256",
          "name": "",
          "type": "uint256"
        }
      ],
      "payable": false,
      "stateMutability": "view",
      "type": "function"
    },
    {
      "constant": false,
      "inputs": [
        {
          "internalType": "address",
          "name": "airlineAddress",
          "type": "address"
        }
      ],
      "name": "getVoteCount",
      "outputs": [
        {
          "internalType": "uint256",
          "name": "",
          "type": "uint256"
        }
      ],
      "payable": false,
      "stateMutability": "nonpayable",
      "type": "function"
    },
    {
      "constant": false,
      "inputs": [
        {
          "internalType": "address",
          "name": "airlineAddress",
          "type": "address"
        }
      ],
      "name": "acceptAirline",
      "outputs": [],
      "payable": false,
      "stateMutability": "nonpayable",
      "type": "function"
    },
    {
      "constant": false,
      "inputs": [],
      "name": "buy",
      "outputs": [],
      "payable": true,
      "stateMutability": "payable",
      "type": "function"
    },
    {
      "constant": true,
      "inputs": [],
      "name": "creditInsurees",
      "outputs": [],
      "payable": false,
      "stateMutability": "pure",
      "type": "function"
    },
    {
      "constant": true,
      "inputs": [],
      "name": "pay",
      "outputs": [],
      "payable": false,
      "stateMutability": "pure",
      "type": "function"
    },
    {
      "constant": false,
      "inputs": [],
      "name": "fund",
      "outputs": [],
      "payable": true,
      "stateMutability": "payable",
      "type": "function"
    }
  ],
  "bytecode": "0x60806040526001600060146101000a81548160ff021916908315150217905550600060025534801561003057600080fd5b50336000806101000a81548173ffffffffffffffffffffffffffffffffffffffff021916908373ffffffffffffffffffffffffffffffffffffffff1602179055506112ab806100806000396000f3fe60806040526004361061009c5760003560e01c8063a6f2ae3a11610064578063a6f2ae3a1461018d578063b60d428814610197578063bf1d9156146101a1578063cd905dff146101f2578063d8ab5b8914610221578063e652f4cc146102725761009c565b80630153d3f1146100a6578063110466ed146100d15780631b9265b81461010e57806336cee4841461012557806369ec5ddd1461013c575b6100a46102d7565b005b3480156100b257600080fd5b506100bb6102d9565b6040518082815260200191505060405180910390f35b3480156100dd57600080fd5b5061010c600480360360208110156100f457600080fd5b810190808035151590602001909291905050506103a5565b005b34801561011a57600080fd5b50610123610484565b005b34801561013157600080fd5b5061013a610486565b005b34801561014857600080fd5b5061018b6004803603602081101561015f57600080fd5b81019080803573ffffffffffffffffffffffffffffffffffffffff169060200190929190505050610488565b005b6101956107ba565b005b61019f6102d7565b005b3480156101ad57600080fd5b506101f0600480360360208110156101c457600080fd5b81019080803573ffffffffffffffffffffffffffffffffffffffff1690602001909291905050506107bc565b005b3480156101fe57600080fd5b50610207610c23565b604051808215151515815260200191505060405180910390f35b34801561022d57600080fd5b506102706004803603602081101561024457600080fd5b81019080803573ffffffffffffffffffffffffffffffffffffffff169060200190929190505050610c39565b005b34801561027e57600080fd5b506102c16004803603602081101561029557600080fd5b81019080803573ffffffffffffffffffffffffffffffffffffffff169060200190929190505050611027565b6040518082815260200191505060405180910390f35b565b60008060009054906101000a900473ffffffffffffffffffffffffffffffffffffffff1673ffffffffffffffffffffffffffffffffffffffff163373ffffffffffffffffffffffffffffffffffffffff161461039d576040517f08c379a000000000000000000000000000000000000000000000000000000000815260040180806020018281038252601c8152602001807f43616c6c6572206973206e6f7420636f6e7472616374206f776e65720000000081525060200191505060405180910390fd5b600254905090565b6000809054906101000a900473ffffffffffffffffffffffffffffffffffffffff1673ffffffffffffffffffffffffffffffffffffffff163373ffffffffffffffffffffffffffffffffffffffff1614610467576040517f08c379a000000000000000000000000000000000000000000000000000000000815260040180806020018281038252601c8152602001807f43616c6c6572206973206e6f7420636f6e7472616374206f776e65720000000081525060200191505060405180910390fd5b80600060146101000a81548160ff02191690831515021790555050565b565b565b6000809054906101000a900473ffffffffffffffffffffffffffffffffffffffff1673ffffffffffffffffffffffffffffffffffffffff163373ffffffffffffffffffffffffffffffffffffffff161461054a576040517f08c379a000000000000000000000000000000000000000000000000000000000815260040180806020018281038252601c8152602001807f43616c6c6572206973206e6f7420636f6e7472616374206f776e65720000000081525060200191505060405180910390fd5b8060001515600160008373ffffffffffffffffffffffffffffffffffffffff1673ffffffffffffffffffffffffffffffffffffffff16815260200190815260200160002060030160009054906101000a900460ff161515146105f7576040517f08c379a00000000000000000000000000000000000000000000000000000000081526004018080602001828103825260268152602001806112026026913960400191505060405180910390fd5b8160001515600160008373ffffffffffffffffffffffffffffffffffffffff1673ffffffffffffffffffffffffffffffffffffffff16815260200190815260200160002060030160019054906101000a900460ff161515146106a4576040517f08c379a000000000000000000000000000000000000000000000000000000000815260040180806020018281038252602a815260200180611228602a913960400191505060405180910390fd5b60405180608001604052808473ffffffffffffffffffffffffffffffffffffffff1681526020016000815260200160011515815260200160001515815250600160008573ffffffffffffffffffffffffffffffffffffffff1673ffffffffffffffffffffffffffffffffffffffff16815260200190815260200160002060008201518160000160006101000a81548173ffffffffffffffffffffffffffffffffffffffff021916908373ffffffffffffffffffffffffffffffffffffffff1602179055506020820151816001015560408201518160030160006101000a81548160ff02191690831515021790555060608201518160030160016101000a81548160ff021916908315150217905550905050505050565b565b6000809054906101000a900473ffffffffffffffffffffffffffffffffffffffff1673ffffffffffffffffffffffffffffffffffffffff163373ffffffffffffffffffffffffffffffffffffffff161461087e576040517f08c379a000000000000000000000000000000000000000000000000000000000815260040180806020018281038252601c8152602001807f43616c6c6572206973206e6f7420636f6e7472616374206f776e65720000000081525060200191505060405180910390fd5b80600160008273ffffffffffffffffffffffffffffffffffffffff1673ffffffffffffffffffffffffffffffffffffffff16815260200190815260200160002060030160009054906101000a900460ff16610924576040517f08c379a00000000000000000000000000000000000000000000000000000000081526004018080602001828103825260258152602001806112526025913960400191505060405180910390fd5b8160001515600160008373ffffffffffffffffffffffffffffffffffffffff1673ffffffffffffffffffffffffffffffffffffffff16815260200190815260200160002060030160019054906101000a900460ff161515146109d1576040517f08c379a000000000000000000000000000000000000000000000000000000000815260040180806020018281038252602a815260200180611228602a913960400191505060405180910390fd5b8260001515600160008373ffffffffffffffffffffffffffffffffffffffff1673ffffffffffffffffffffffffffffffffffffffff16815260200190815260200160002060020160003373ffffffffffffffffffffffffffffffffffffffff1673ffffffffffffffffffffffffffffffffffffffff16815260200190815260200160002060009054906101000a900460ff16151514610abb576040517f08c379a00000000000000000000000000000000000000000000000000000000081526004018080602001828103825260258152602001806111dd6025913960400191505060405180910390fd5b60018060008673ffffffffffffffffffffffffffffffffffffffff1673ffffffffffffffffffffffffffffffffffffffff16815260200190815260200160002060030160016101000a81548160ff0219169083151502179055507fe0b78a1bb9c7d03b3817acdcc12bf30509de3a008f21e5feceed7c3a523de44b84600160008773ffffffffffffffffffffffffffffffffffffffff1673ffffffffffffffffffffffffffffffffffffffff16815260200190815260200160002060010154600160008873ffffffffffffffffffffffffffffffffffffffff1673ffffffffffffffffffffffffffffffffffffffff16815260200190815260200160002060030160019054906101000a900460ff16604051808473ffffffffffffffffffffffffffffffffffffffff1673ffffffffffffffffffffffffffffffffffffffff16815260200183815260200182151515158152602001935050505060405180910390a150505050565b60008060149054906101000a900460ff16905090565b6000809054906101000a900473ffffffffffffffffffffffffffffffffffffffff1673ffffffffffffffffffffffffffffffffffffffff163373ffffffffffffffffffffffffffffffffffffffff1614610cfb576040517f08c379a000000000000000000000000000000000000000000000000000000000815260040180806020018281038252601c8152602001807f43616c6c6572206973206e6f7420636f6e7472616374206f776e65720000000081525060200191505060405180910390fd5b80600160008273ffffffffffffffffffffffffffffffffffffffff1673ffffffffffffffffffffffffffffffffffffffff16815260200190815260200160002060030160009054906101000a900460ff16610da1576040517f08c379a00000000000000000000000000000000000000000000000000000000081526004018080602001828103825260258152602001806112526025913960400191505060405180910390fd5b8160001515600160008373ffffffffffffffffffffffffffffffffffffffff1673ffffffffffffffffffffffffffffffffffffffff16815260200190815260200160002060030160019054906101000a900460ff16151514610e4e576040517f08c379a000000000000000000000000000000000000000000000000000000000815260040180806020018281038252602a815260200180611228602a913960400191505060405180910390fd5b8260001515600160008373ffffffffffffffffffffffffffffffffffffffff1673ffffffffffffffffffffffffffffffffffffffff16815260200190815260200160002060020160003373ffffffffffffffffffffffffffffffffffffffff1673ffffffffffffffffffffffffffffffffffffffff16815260200190815260200160002060009054906101000a900460ff16151514610f38576040517f08c379a00000000000000000000000000000000000000000000000000000000081526004018080602001828103825260258152602001806111dd6025913960400191505060405180910390fd5b600160008573ffffffffffffffffffffffffffffffffffffffff1673ffffffffffffffffffffffffffffffffffffffff1681526020019081526020016000206001016000815480929190600101919050555060018060008673ffffffffffffffffffffffffffffffffffffffff1673ffffffffffffffffffffffffffffffffffffffff16815260200190815260200160002060020160008673ffffffffffffffffffffffffffffffffffffffff1673ffffffffffffffffffffffffffffffffffffffff16815260200190815260200160002060006101000a81548160ff02191690831515021790555050505050565b60008060009054906101000a900473ffffffffffffffffffffffffffffffffffffffff1673ffffffffffffffffffffffffffffffffffffffff163373ffffffffffffffffffffffffffffffffffffffff16146110eb576040517f08c379a000000000000000000000000000000000000000000000000000000000815260040180806020018281038252601c8152602001807f43616c6c6572206973206e6f7420636f6e7472616374206f776e65720000000081525060200191505060405180910390fd5b81600160008273ffffffffffffffffffffffffffffffffffffffff1673ffffffffffffffffffffffffffffffffffffffff16815260200190815260200160002060030160009054906101000a900460ff16611191576040517f08c379a00000000000000000000000000000000000000000000000000000000081526004018080602001828103825260258152602001806112526025913960400191505060405180910390fd5b600160008473ffffffffffffffffffffffffffffffffffffffff1673ffffffffffffffffffffffffffffffffffffffff1681526020019081526020016000206001015491505091905056fe54686973206169726c696e6520686173206e6f20766f7465732066726f6d2063616c6c657254686973206169726c696e6520686173206265656e20696e766974656420616c72656164792e54686973206169726c696e65206861736e2774206265656e20616c72656164792061636365707465642e54686973206169726c696e65206861736e2774206265656e20696e7669746564207965742ea265627a7a72315820225f5f8fa4ac01ae53d9b8af4b10ba01c014f7b5a78d06f899140a965dd19ffc64736f6c63430005110032",
  "source": "pragma solidity ^0.5.16;\n//pragma solidity ^0.4.25;\n\nimport \"../node_modules/openzeppelin-solidity/contracts/math/SafeMath.sol\";\n\ncontract FlightSuretyData {\n    using SafeMath for uint256;\n\n    /********************************************************************************************/\n    /*                                       DATA VARIABLES                                     */\n    /********************************************************************************************/\n\n    address private contractOwner;                                      // Account used to deploy contract\n    bool private operational = true;                                    // Blocks all state changes throughout the contract if false\n\n    // Airline Definition\n    struct Airline {\n        address airline;\n        uint256 votes;\n        mapping(address => bool) voters;\n        bool    isInvited;\n        bool    isAccepted;\n    }\n\n    // Airline List\n    mapping(address => Airline) fsAirlines;\n\n    // Number of airlines \n    uint256 airlinesCount = 0;\n\n    /********************************************************************************************/\n    /*                                       EVENT DEFINITIONS                                  */\n    /********************************************************************************************/\n    \n    // Event fired to report the amount of votes available in an Airline\n    event AirlineStatus(\n        address airline,\n        uint256 votes,\n        bool    isAccepted\n    );\n\n    /**\n    * @dev Constructor\n    *      The deploying account becomes contractOwner\n    */\n    constructor\n                                (\n                                ) \n                                public \n    {\n        contractOwner = msg.sender;\n    }\n\n    /********************************************************************************************/\n    /*                                       FUNCTION MODIFIERS                                 */\n    /********************************************************************************************/\n\n    // Modifiers help avoid duplication of code. They are typically used to validate something\n    // before a function is allowed to be executed.\n\n    /**\n    * @dev Modifier that requires the \"operational\" boolean variable to be \"true\"\n    *      This is used on all state changing functions to pause the contract in \n    *      the event there is an issue that needs to be fixed\n    */\n    modifier requireIsOperational() \n    {\n        require(operational, \"Contract is currently not operational\");\n        _;  // All modifiers require an \"_\" which indicates where the function body will be added\n    }\n\n    /**\n    * @dev Modifier that requires the \"ContractOwner\" account to be the function caller\n    */\n    modifier requireContractOwner()\n    {\n        require(msg.sender == contractOwner, \"Caller is not contract owner\");\n        _;\n    }\n\n    /**\n     * Modifier required to validate is an address has been invited or not\n     */\n     modifier isAirlineInvited(\n                                address airlineAddress\n                              ) \n    {\n        require(fsAirlines[airlineAddress].isInvited, \"This airline hasn't been invited yet.\");\n        _;\n     }\n\n    /**\n     * Modifier required to validate is an address has been invited or not\n     */\n     modifier isAirlineNotInvitedYet(\n                                        address airlineAddress\n                                    ) \n    {\n        require(fsAirlines[airlineAddress].isInvited == false, \"This airline has been invited already.\");\n        _;\n     }\n\n    /**\n     * Modifier required to validate the address has NOT been fully accepted\n     */\n    modifier isAirlineNotAcceptedYet(\n                                        address airlineAddress\n                                    ) \n    {\n        require(fsAirlines[airlineAddress].isAccepted == false, \"This airline hasn't been already accepted.\");\n        _;\n    }\n\n    /**\n     * MOdifier required to validate the address has been fully accepted\n     */\n    modifier isAirlineAccepted(address airlineAddress) {\n        require(fsAirlines[airlineAddress].isAccepted, \"This airline has been already accepted.\");\n        _;\n    }\n\n    /**\n     * Modifier check if the caller has already voted for the specified airline\n     */\n    modifier airlineVotedAlready(address airlineAddress) {\n        require(fsAirlines[airlineAddress].voters[msg.sender] == true, \"This airline already voted\");\n        _;\n    }\n\n    /**\n     * Modifier check if the caller has NOT already voted for the specified airline\n     */\n    modifier airlineNotVotedAlready(address airlineAddress) {\n        require(fsAirlines[airlineAddress].voters[msg.sender] == false, \"This airline has no votes from caller\");\n        _;\n    } \n\n\n    /********************************************************************************************/\n    /*                                       UTILITY FUNCTIONS                                  */\n    /********************************************************************************************/\n\n    /**\n    * @dev Get operating status of contract\n    *\n    * @return A bool that is the current operating status\n    */      \n    function isOperational() \n                            public \n                            view \n                            returns(bool) \n    {\n        return operational;\n    }\n\n\n    /**\n    * @dev Sets contract operations on/off\n    *\n    * When operational mode is disabled, all write transactions except for this one will fail\n    */    \n    function setOperatingStatus\n                            (\n                                bool mode\n                            ) \n                            external\n                            requireContractOwner \n    {\n        operational = mode;\n    }\n\n    /********************************************************************************************/\n    /*                                     SMART CONTRACT FUNCTIONS                             */\n    /********************************************************************************************/\n\n   /**\n    * @dev Add an airline to the registration queue\n    *      Can only be called from FlightSuretyApp contract\n    *\n    */   \n    /*function registerAirline\n                            (   \n                            )\n                            external\n                            pure\n    {\n        //Removed on purpose. I splitted the functinality in 2 methods in order to improve the design.\n    }*/\n\n    /**\n     * Invite an airline to be part of the system. This method will fail if the airline has been already invited or accepted\n     */\n    function createAirline(\n                            address airlineAddress\n                          )\n                          external\n                          requireContractOwner()\n                          isAirlineNotInvitedYet(airlineAddress)\n                          isAirlineNotAcceptedYet(airlineAddress)                          \n    {\n        // Add the airline to the invitation queue\n        fsAirlines[airlineAddress] = Airline({\n            airline: airlineAddress,\n            votes: 0,\n            isInvited: true,\n            isAccepted: false\n        });\n    }\n\n    /**\n     * Add a vote for the specified airline if this hasn't been fully accepted yet \n     * but it has been invited.\n     */\n    function voteAirline(\n                            address airlineAddress\n                        ) \n                        external\n                        requireContractOwner()\n                        isAirlineInvited(airlineAddress)\n                        isAirlineNotAcceptedYet(airlineAddress)\n                        airlineNotVotedAlready(airlineAddress)\n    {\n        // Add a vote\n        fsAirlines[airlineAddress].votes++;\n\n        // Add the caller as valid voter\n        fsAirlines[airlineAddress].voters[airlineAddress] = true;\n    }\n\n    /**\n     * Retrieve the number of airline registered\n     */\n    function getAcceptedAirlineCount() \n                                        view\n                                        external\n                                        requireContractOwner()\n                                        returns (uint256)\n    {\n        return airlinesCount;\n    }\n    \n    /**\n     * Retrieve the number of accumulated votes\n     */\n    function getVoteCount(\n                            address airlineAddress\n                         )\n                         external\n                         requireContractOwner()\n                         isAirlineInvited(airlineAddress)\n                         returns (uint256)\n    {\n        return fsAirlines[airlineAddress].votes;\n    }\n\n    /**\n     * Accept Airline\n     */\n    function acceptAirline(\n                            address airlineAddress\n                          )\n                          external\n                          requireContractOwner()\n                          isAirlineInvited(airlineAddress)\n                          isAirlineNotAcceptedYet(airlineAddress)\n                          airlineNotVotedAlready(airlineAddress)                         \n    {\n        \n        // Mark airline as accepted\n        fsAirlines[airlineAddress].isAccepted = true;\n\n        // Emit event reporting it was directly added\n        emit AirlineStatus(\n            airlineAddress, \n            fsAirlines[airlineAddress].votes,\n            fsAirlines[airlineAddress].isAccepted \n        );\n    }\n\n   /**\n    * @dev Buy insurance for a flight\n    *\n    */   \n    function buy(                             \n                )\n                external\n                payable\n    {\n\n    }\n\n    /**\n     *  @dev Credits payouts to insurees\n    */\n    function creditInsurees\n                                (\n                                )\n                                external\n                                pure\n    {\n    }\n    \n\n    /**\n     *  @dev Transfers eligible payout funds to insuree\n     *\n    */\n    function pay\n                            (\n                            )\n                            external\n                            pure\n    {\n    }\n\n   /**\n    * @dev Initial funding for the insurance. Unless there are too many delayed flights\n    *      resulting in insurance payouts, the contract should be self-sustaining\n    *\n    */   \n    function fund\n                            (   \n                            )\n                            public\n                            payable\n    {\n    }\n\n    function getFlightKey\n                        (\n                            address airline,\n                            string memory flight,\n                            uint256 timestamp\n                        )\n                        pure\n                        internal\n                        returns(bytes32) \n    {\n        return keccak256(abi.encodePacked(airline, flight, timestamp));\n    }\n\n    /**\n    * @dev Fallback function for funding smart contract.\n    *\n    */\n    function() \n                            external \n                            payable \n    {\n        fund();\n    }\n\n\n}\n\n",
  "sourcePath": "/Users/pperotti/Documents/CURSOS/Udacity/Blockchain developer/Projects/udacity-flight-surety/project/contracts/FlightSuretyData.sol",
  "compiler": {
    "name": "solc",
    "version": "0.5.17+commit.d19bba13.Emscripten.clang"
  },
  "schemaVersion": "3.3.4",
  "updatedAt": "2021-08-16T01:09:44.902Z",
  "networkType": "ethereum",
  "devdoc": {
    "methods": {
      "buy()": {
        "details": "Buy insurance for a flight    "
      },
      "constructor": {
        "details": "Constructor     The deploying account becomes contractOwner"
      },
      "creditInsurees()": {
        "details": "Credits payouts to insurees"
      },
      "fund()": {
        "details": "Initial funding for the insurance. Unless there are too many delayed flights     resulting in insurance payouts, the contract should be self-sustaining    "
      },
      "isOperational()": {
        "details": "Get operating status of contract",
        "return": "A bool that is the current operating status"
      },
      "pay()": {
        "details": "Transfers eligible payout funds to insuree    "
      },
      "setOperatingStatus(bool)": {
        "details": "Sets contract operations on/off    * When operational mode is disabled, all write transactions except for this one will fail"
      }
    }
  },
  "userdoc": {
    "methods": {
      "acceptAirline(address)": {
        "notice": "Accept Airline"
      },
      "createAirline(address)": {
        "notice": "Invite an airline to be part of the system. This method will fail if the airline has been already invited or accepted"
      },
      "getAcceptedAirlineCount()": {
        "notice": "Retrieve the number of airline registered"
      },
      "getVoteCount(address)": {
        "notice": "Retrieve the number of accumulated votes"
      },
      "voteAirline(address)": {
        "notice": "Add a vote for the specified airline if this hasn't been fully accepted yet  but it has been invited."
      }
    }
  }
}